:020000040800F2
:10000000002800209D0B0008ED0B0008ED0B0008F8
:10001000ED0B0008ED0B0008ED0B000800000000E0
:10002000000000000000000000000000ED0B0008D0
:10003000ED0B000800000000ED0B0008ED0B0008C0
:10004000ED0B0008ED0B0008ED0B0008ED0B0008B0
:10005000ED0B0008ED0B0008ED0B0008ED0B0008A0
:10006000ED0B0008ED0B0008ED0B0008ED0B000890
:10007000ED0B0008ED0B0008ED0B0008ED0B000880
:10008000ED0B0008ED0B0008ED0B0008ED0B000870
:10009000ED0B0008ED0B0008ED0B0008ED0B000860
:1000A000ED0B0008ED0B0008ED0B0008ED0B000850
:1000B000ED0B0008ED0B0008ED0B0008ED0B000840
:1000C000ED0B0008ED0B0008ED0B0008ED0B000830
:1000D000ED0B0008ED0B0008ED0B0008ED0B000820
:1000E000ED0B0008ED0B000800000000ED0B000810
:1000F000ED0B0008ED0B0008ED0B0008ED0B000800
:10010000ED0B0008ED0B0008ED0B0008ED0B0008EF
:10011000ED0B0008ED0B0008ED0B0008ED0B0008DF
:10012000ED0B0008ED0B0008ED0B0008ED0B0008CF
:1001300010B5054C237833B9044B13B10448AFF321
:1001400000800123237010BD00000020000000008B
:10015000380C000808B5034B1BB103490348AFF343
:10016000008008BD0000000004000020380C0008DA
:1001700080B489B000AF78608A4B01221A708A4A35
:100180007B68136000237B6100233B610023FB61DC
:100190000023FB7678E1844B1968FA7E1346DB0076
:1001A0009B1A0B445B78BB767F4B1968FA7E13462B
:1001B000DB009B1A0B445B787B767B7E072B02D897
:1001C0007A4BFB6128E07B7E072B08D97B7E0F2BC7
:1001D00005D8764BFB617B7E083B7B761CE07B7E03
:1001E0000F2B0BD97B7E172B08D8714BFB617B7EC5
:1001F000103B7B76BB7E103BBB760DE07B7E172BE6
:100200000AD97B7E1F2B07D8694BFB617B7E183B8D
:100210007B76BB7E103BBB76FB697B61FB6904335D
:100220003B61614B1968FA7E1346DB009B1A0B4455
:10023000DB78FB735C4B1968FA7E1346DB009B1A74
:100240000B449B78BB73BB7E072B5DD8BB7B002B1D
:1002500002D0012B29D0C3E0FB7B012B0FD17B699E
:100260001B687A7E92000F2101FA02F2D2431A40F3
:100270007B691A607B691A687B691A60B0E07B69E8
:100280001B687A7E92000F2101FA02F2D2431A40D3
:100290007B691A607B691B687A7E9200042101FAEF
:1002A00002F21A437B691A609AE0FB7B002B15D19E
:1002B0007B691B687A7E92000F2101FA02F2D24319
:1002C0001A407B691A607B691B687A7E9200032161
:1002D00001FA02F21A437B691A6081E07B691B68AC
:1002E0007A7E92000F2101FA02F2D2431A407B6912
:1002F0001A607B691B687A7E92000B2101FA02F278
:100300001A437B691A606BE0BB7E072B68D9BB7E02
:100310000F2B65D8BB7B002B02D0012B29D05FE0CF
:10032000FB7B012B0FD13B691B687A7E92000F216A
:1003300001FA02F2D2431A403B691A603B691A681B
:100340003B691A604CE03B691B687A7E92000F2182
:1003500001FA02F2D2431A403B691A603B691B68FA
:100360007A7E9200042101FA02F21A433B691A6074
:1003700036E0FB7B002B1DD13B691B687A7E920027
:100380000F2101FA02F2D2431A403B691A603B691D
:100390001B687A7E9200032101FA02F21A433B693C
:1003A0001A601CE0200000201C0000200008014012
:1003B000000C01403B691B687A7E92000F2101FA14
:1003C00002F2D2431A403B691A603B691B687A7E8D
:1003D00092000B2101FA02F21A433B691A6000BF36
:1003E0002E4B1968FA7E1346DB009B1A0B441B78D0
:1003F0007B732A4B1968FA7E1346DB009B1A0B4469
:100400001B793B737B7B002B1CD13B7B002B0BD1DF
:10041000234BDB68BA7E012101FA02F2D243114676
:100420001F4A0B40D3602CE03B7B012B29D11C4B96
:10043000DB68BA7E012101FA02F21146184A0B4329
:10044000D3601EE07B7B012B1BD13B7B002B0BD1B0
:10045000144BDB68BA7E012101FA02F2D243114645
:10046000104A0B40D3600CE03B7B012B09D10D4BB4
:10047000DB68BA7E012101FA02F21146094A0B43F8
:10048000D360FB7E0133FB76FB7E1F2B7FF683AEB2
:1004900000BF00BF2437BD4680BC70471C00002051
:1004A00000080140000C014080B489B000AF034651
:1004B0000A46FB711346BB7100237B6100233B613D
:1004C0000023FB61FB79FB76FB79BB76BB7E072BB8
:1004D00002D8524BFB6128E0BB7E072B08D9BB7EBC
:1004E0000F2B05D84D4BFB61BB7E083BBB761CE058
:1004F000BB7E0F2B0BD9BB7E172B08D8484BFB615B
:10050000BB7E103BBB76FB7E103BFB760DE0BB7EDB
:10051000172B0AD9BB7E1F2B07D8414BFB61BB7E33
:10052000183BBB76FB7E103BFB76FB697B61FB696E
:1005300004333B61BB79FB73FB7E072B31D8FB7B1C
:10054000002B02D0012B16D063E07B691B68BA7EBA
:1005500092000F2101FA02F2D2431A407B691A601D
:100560007B691B68BA7E9200042101FA02F21A43E9
:100570007B691A604DE07B691B68BA7E92000F218F
:1005800001FA02F2D2431A407B691A607B691B6848
:10059000BA7E9200032101FA02F21A437B691A60C3
:1005A00037E0FB7E072B34D9FB7E0F2B31D8FB7B4A
:1005B000002B02D0012B16D02BE03B691B68BA7EC2
:1005C00092000F2101FA02F2D2431A403B691A60ED
:1005D0003B691B68BA7E9200042101FA02F21A43B9
:1005E0003B691A6015E03B691B68BA7E92000F21D7
:1005F00001FA02F2D2431A403B691A603B691B6858
:10060000BA7E9200032101FA02F21A433B691A6092
:1006100000BF00BF2437BD4680BC704700080140C2
:10062000000C014080B487B000AF9B4B01221A70D0
:100630000023FB600023BB6000237B610023FB746D
:100640001FE1FA7C95491346DB009B1A0B440133EA
:100650001B78BB74FA7C91491346DB009B1A0B4450
:1006600001331B787B747B7C072B02D88C4B7B611E
:1006700028E07B7C072B08D97B7C0F2B05D8884B87
:100680007B617B7C083B7B741CE07B7C0F2B0BD954
:100690007B7C172B08D8834B7B617B7C103B7B7466
:1006A000BB7C103BBB740DE07B7C172B0AD97B7C99
:1006B0001F2B07D87B4B7B617B7C183B7B74BB7CFF
:1006C000103BBB747B69FB607B690433BB60FA7CC5
:1006D00072491346DB009B1A0B4403331B78FB71F2
:1006E000FA7C6E491346DB009B1A0B4402331B78DD
:1006F000BB71BB7C072B5DD8BB79002B02D0012BD3
:1007000029D0BBE0FB79012B0FD1FB681B687A7CF9
:1007100092000F2101FA02F2D2431A40FB681A60DC
:10072000FB681A68FB681A60A8E0FB681B687A7CA3
:1007300092000F2101FA02F2D2431A40FB681A60BC
:10074000FB681B687A7C9200042101FA02F21A43CA
:10075000FB681A6092E0FB79002B15D1FB681B68DF
:100760007A7C92000F2101FA02F2D2431A40FB6810
:100770001A60FB681B687A7C9200032101FA02F27E
:100780001A43FB681A6079E0FB681B687A7C920068
:100790000F2101FA02F2D2431A40FB681A60FB688B
:1007A0001B687A7C92000B2101FA02F21A43FB6863
:1007B0001A6063E0BB7C072B60D9BB7C0F2B5DD834
:1007C000BB79002B02D0012B29D057E0FB79012BFC
:1007D0000FD1BB681B687A7C92000F2101FA02F2EC
:1007E000D2431A40BB681A60BB681A68BB681A60BB
:1007F00044E0BB681B687A7C92000F2101FA02F288
:10080000D2431A40BB681A60BB681B687A7C9200AE
:10081000042101FA02F21A43BB681A602EE0FB7948
:10082000002B15D1BB681B687A7C92000F2101FA5E
:1008300002F2D2431A40BB681A60BB681B687A7C1C
:100840009200032101FA02F21A43BB681A6014E015
:10085000BB681B687A7C92000F2101FA02F2D24336
:100860001A40BB681A60BB681B687A7C92000B2137
:1008700001FA02F21A43BB681A6000BFFB7C013325
:10088000FB74FB7C1F2B7FF6DCAE00BF00BF1C3768
:10089000BD4680BC704700BF20000020500C0008FF
:1008A00000080140000C014080B489B000AF03464D
:1008B0000A46FB711346BB716E4B01221A7000236E
:1008C0007B6100233B610023FB61FB79FB76FB79B5
:1008D000BB76BB7E072B02D8674BFB6128E0BB7E53
:1008E000072B08D9BB7E0F2B05D8634BFB61BB7E62
:1008F000083BBB761CE0BB7E0F2B0BD9BB7E172BB6
:1009000008D85E4BFB61BB7E103BBB76FB7E103B89
:10091000FB760DE0BB7E172B0AD9BB7E1F2B07D8B9
:10092000564BFB61BB7E183BBB76FB7E103BFB76D8
:10093000FB697B61FB6904333B61BB79FB73FB7E25
:10094000072B46D8FB7B092B17D0092B00F38D8092
:10095000012B02D0082B26D087E07B691B68BA7E6A
:1009600092000F2101FA02F2D2431A407B691A6009
:100970007B691A687B691A6077E07B691B68BA7EBD
:1009800092000F2101FA02F2D2431A407B691A60E9
:100990007B691B68BA7E9200032101FA02F21A43B6
:1009A0007B691A6061E07B691B68BA7E92000F2147
:1009B00001FA02F2D2431A407B691A607B691B6814
:1009C000BA7E9200042101FA02F21A437B691A608E
:1009D0004BE0FB7E072B48D9FB7E0F2B45D8FB7BDA
:1009E000092B16D0092B40DC012B02D0082B26D076
:1009F0003BE03B691B68BA7E92000F2101FA02F2CC
:100A0000D2431A403B691A603B691A683B691A6015
:100A10002BE03B691B68BA7E92000F2101FA02F2BB
:100A2000D2431A403B691A603B691B68BA7E920048
:100A3000032101FA02F21A433B691A6015E03B698F
:100A40001B68BA7E92000F2101FA02F2D2431A40CB
:100A50003B691A603B691B68BA7E9200042101FA67
:100A600002F21A433B691A6000BF00BF2437BD463B
:100A700080BC70472000002000080140000C0140AD
:100A800080B483B000AF00237B60114A13786FF30A
:100A9000010313700F4A137843F00103137002E04F
:100AA0007B6801337B600B4B1B78C3F34003DBB2E5
:100AB000002B03D17B68084A9342F1D9054A937809
:100AC0006FF3C303937000BF0C37BD4680BC704703
:100AD00004100240001002409F86010080B483B0E1
:100AE00000AF03460A46FB711346BB71FB79022B2C
:100AF0001CD0022B25DC002B02D0012B0BD020E0D8
:100B0000124B1B68BA79012101FA02F211460F4A11
:100B10000B43136015E00E4B1B68BA79012101FAF3
:100B200002F211460A4A0B4313600AE0094B1B68A4
:100B3000BA79012101FA02F21146064A0B43136009
:100B400000BF00BF0C37BD4680BC70471410024088
:100B50001C1002401810024080B582B000AFFFF7B1
:100B60008FFF02210220FFF7B9FF03210220FFF7C8
:100B7000B5FF0948FFF7FCFA0023FB71FB79002160
:100B80001846FFF791FCFFF74DFDFB790821184649
:100B9000FFF78AFEFEE700BF500C00080D488546AF
:100BA000AFF300800C480D490D4A002302E0D458F1
:100BB000C4500433C4188C42F9D30A4A0A4C0023A7
:100BC00001E013600432A242FBD300F011F8FFF7FA
:100BD000C3FFFEE7002800200000002000000020E6
:100BE000380D00080000002024000020FEE700006F
:100BF00070B500260C4D0D4C641BA410A64209D103
:100C000000F01AF800260A4D0A4C641BA410A642F4
:100C100005D170BD55F8043B98470136EEE755F80D
:100C2000043B98470136F2E7300D0008300D00080C
:100C3000300D0008340D0008F8B500BFF8BC08BC42
:100C40009E467047F8B500BFF8BC08BC9E4670478A
:100C5000000001000101010001010000010100028A
:100C60000100010101000301000101010004010074
:100C7000010101000501000101010006010001015F
:100C8000010007010001010100080100010101004C
:100C9000090100010101000A0100000101000B012E
:100CA00000010101000C0100010101000D01000122
:100CB0000101000E0100010101000F01000101010D
:100CC00001100100010101011101000101010112E6
:100CD00001000101010113010001010101140100E2
:100CE00001010101150100010101011601000101CD
:100CF00001011701000101010118010001010101B9
:100D0000190100010101011A0100010101011B018A
:100D100000010101011C0100010101011D0100018F
:100D20000101011E0100010101011F01000101017A
:040D30005501000861
:040D34003101000881
:0400000508000B9D47
:00000001FF
